:10F60000C32DF6C330F6C39BF6C39FF6C3A2F6C361
:10F61000A4F6C3A6F6C3A8F6C3AAF6C3B0F6C3B54C
:10F62000F6C3BAF6C3BFF6C3C5F6C3C7F6C379F6C9
:10F630003180000E00CDB0F6CDAAF6062A0E0016D7
:10F64000022100E1C5D5E54ACDBAF6C1C5CDBFF668
:10F65000CDC5F6FE00C230F6E111800019D1C1051A
:10F66000CA79F6147AFE1BDA44F616010CC5D5E504
:10F67000CDB5F6E1D1C1C344F63EC332000021034B
:10F68000F62201003205002106E922060001800071
:10F69000CDBFF6FB3A04004FC300E1763E00C979C6
:10F6A00076C976C976C976C976C90E00CDB5F6C9D0
:10F6B00079324400C979324000C979324100C969C0
:09F6C00060224200C976C976C936
:00000001FF
