:103E0000C32D3EC3303EC39B3EC39F3EC3A23EC3B1
:103E1000A43EC3A63EC3A83EC3AA3EC3B03EC3B59C
:103E20003EC3BA3EC3BF3EC3C53EC3C73EC3793ED1
:103E30003180000E00CDB03ECDAA3E06AE0E00167B
:103E400002210029C5D5E54ACDBA3EC1C5CDBF3E48
:103E5000CDC53EFE00C2303EE111800019D1C10542
:103E6000CA793E147AFE1BDA443E16010CC5D5E52C
:103E7000CDB53EE1D1C1C3443E3EC3320000210373
:103E80003E22010032050021063122060001800099
:103E9000CDBF3EFB3A04004FC30029763E00C979EE
:103EA00076C976C976C976C976C90E00CDB53EC940
:103EB00079324400C979324000C979324100C96978
:093EC00060224200C976C976C9EE
:00000001FF
